:100000000C9429010C94BB1E0C94941E0C946D1E30
:100010000C94461E0C9451010C9451010C941F1E1B
:100020000C9451010C9451010C94341B0C94A31B9F
:100030000C9451010C9451010C9451010C945101F8
:100040000C9451010C9451010C9451010C945101E8
:100050000C9451010C9451010C9451010C94D51D38
:100060000C9451010C9451010C9451010C945101C8
:100070000C9451010C9451010C9451010C945101B8
:100080000C9451010C9451010C9451010C945101A8
:100090000C9451010C9451010C9451010C94510198
:1000A0000C9451010C9451010C9451014E414E4954
:1000B0004E495459494E46CDCCCC3D0AD7233C1726
:1000C000B7D13877CC2B329595E6241FB14F0A0073
:1000D0000020410000C84200401C4620BCBE4CCA63
:1000E0001B0E5AAEC59D74000622766D247F203902
:1000F0000F5C50104008063F065B4F666D7D077F22
:100100006F303058484C535F777F395E79713D7658
:10011000060E753815373F7367336D783E1C2A76A7
:100120006E5B39300F1308105F7C585E7B716F7403
:10013000040C753015545C7367506D781C1C2A765E
:10014000665B79064F400000000000240027002A6B
:10015000002D00300000000000250028002B002E9C
:100160000031000000000200090F0000030401003C
:100170000C00000000000000000000000000000073
:100180000000080B00020202000009040000010246
:1001900002000005240010010524010101042402CD
:1001A000060524060001070581031000400904012B
:1001B00000020A0000000705020240000007058354
:1001C000024000000403090412010002EF02014092
:1001D0004123011000010102030141726475696E3F
:1001E0006F204C4C43004732372053686966746572
:1001F00072000008484904080201104080401020A5
:1002000040804080080204018040201002011080DC
:100210001020404020000000002300260029002C70
:10022000002F000404040404030405020202020473
:100230000302020202060606060606040402020281
:100240000404070605040100080A0B0C0D09151F1C
:100250006A2A11241FBECFEFDAE0DEBFCDBF13E064
:10026000A0E0B1E0E6E7F8E602C005900D92AA3DF5
:10027000B107D9F725E0AAEDB3E001C01D92A8347B
:10028000B207E1F711E0C8E2D1E004C02197FE0116
:100290000E943E30C732D107C9F70E94D7210C9483
:1002A0002E340C9400008F929F92AF92BF92CF9207
:1002B000DF92EF92FF92CF93DF93CDB7DEB7C054BA
:1002C000D1090FB6F894DEBF0FBECDBF20E4E2EA3D
:1002D000F1E0DE01119601900D922A95E1F7FC0103
:1002E0009C0129583F4F6FEF7FEFCB01E217F307D7
:1002F00009F458C041916B017C01C4265FE0C5221E
:10030000DD24EE24FF24CC0CDD1CCC0CDD1CA1E094
:10031000B0E0AC0FBD1FCA0EDB1ED601CD90DD9044
:10032000ED90FC904B015C0164E0B694A794979427
:1003300087946A95D1F7C824D924EA24FB2450E095
:1003400074E0559547957A95E1F7052E000C660BFC
:10035000770B4C255D256E257F254F705527662729
:100360007727440F551F440F551F81E090E08C0FF5
:100370009D1F480F591FDA018D909D90AD90BC9044
:10038000B4E0F694E794D794C794BA95D1F78C2447
:100390009D24AE24BF24C501B4016095709580955D
:1003A0009095A4CFC05CDF4F0FB6F894DEBF0FBEB0
:1003B000CDBFDF91CF91FF90EF90DF90CF90BF90B6
:1003C000AF909F908F900895CF92DF92EF92FF921F
:1003D0000F931F93CF93DF93E801882309F441C063
:1003E0006A012417350708F46901FA014217530717
:1003F00008F4F901CB016C157D0508F4C601E81776
:10040000F90708F4CF012417350738F496012E0FA9
:100410003F1FA901481B590BCA01F12CE12CB0E088
:10042000A0E09C01AD012C193D094E095F09AFEF19
:10043000BFEF0E94802E9F0150E040E02C193D0943
:100440004E095F090E94CA2E2883398382E090E01A
:10045000DF91CF911F910F91FF90EF90DF90CF90A0
:10046000089590E080E0F4CFFC018091510488234E
:1004700011F13FB7F89482E08093E9002091F200F7
:10048000822F90E01816190614F481E090E088237A
:1004900039F0289844E6409350044091F10040839D
:1004A000222339F02091F200211103C02BE6209382
:1004B000E8003FBF08958FEF9FEF0895409111042A
:1004C0005091120420910F043091100442175307E9
:1004D000B4F49091E8009570E1F39091E80092FDFA
:1004E00019C08093F100809111049091120401963B
:1004F0008F739927892B19F48EEF8093E8008091F0
:1005000011049091120401969093120480931104A7
:1005100081E0089580E00895DF92EF92FF920F93BB
:100520001F93CF93DF93D82E8A01EB017B01E40E5A
:10053000F51ECE15DF0559F0D7FE12C0FE018491DD
:100540000E945E0221968111F4CF0FEF1FEFC801C8
:10055000DF91CF911F910F91FF90EF90DF90089561
:100560008881EECF2FB7F89487708093E90090913F
:10057000E800892F807295FF04C09091F20080E41A
:10058000891B2FBF0895615030F02091F100FC01CC
:1005900020830196F8CF289884E68093500408952C
:1005A0008091070481110DC082E08093030484E0F0
:1005B00080930404109206041092050481E0809355
:1005C000070483E094E008950F931F93CF93DF9384
:1005D0001F92CDB7DEB782E0898342E450E062E843
:1005E00071E080E80E948C020E94D002DC01129629
:1005F0000D911C910115110589F0D801ED91FC9127
:100600000280F381E02DBE016F5F7F4FC801099525
:1006100097FD04C0F80100851185ECCF89810F900A
:10062000DF91CF911F910F910895CF93DF931F9288
:10063000CDB7DEB76983DC01ED91FC910280F381D7
:10064000E02D41E050E0BE016F5F7F4F09950F90B4
:10065000DF91CF910895682F82E594E00C94150303
:1006600083E08093E9008091F200882319F08AE307
:100670008093E800089583E00E94B20290E008951C
:10068000CF93DF931F92CDB7DEB7FC0184859585AC
:1006900097FD08C02FEF3FEF358724870F90DF913C
:1006A000CF910895CE0101960E943402019719F46A
:1006B000898190E0F3CF8FEF9FEFF0CF0F931F93DF
:1006C000CF93DF931F92CDB7DEB78C01FC018485F9
:1006D000958597FF0BC0CE0101960E9434020197C9
:1006E00071F4898190E0F80195878487F801848509
:1006F00095850F90DF91CF911F910F9108958FEF06
:100700009FEFF1CFFC018485958597FD0BC09FB7C6
:10071000F89482E08093E9008091F2009FBF90E01E
:10072000019608959FB7F89482E08093E900809144
:10073000F2009FBF90E0089581508F3008F047C0CD
:10074000E82FF0E0EA55FC4F0C943E30C303C7039A
:10075000B503BB03BF03E703E703E703CA03D00303
:10076000D403D803DE03E703E203809180008F7790
:10077000809380000895809180008F7DF9CF8091D3
:100780008000877FF5CF84B58F7784BD089584B5C9
:100790008F7DFBCF809190008F778093900008959C
:1007A000809190008F7DF9CF80919000877FF5CF69
:1007B0008091C0008F778093C00008958091C00021
:1007C0008F7DF9CF8091C200877F8093C20008950A
:1007D000CF93DF93282F30E0F901ED59FE4F84913C
:1007E000F901EA50FE4FD491F901ED5DFD4FC4913E
:1007F000CC23A1F081110E949C03EC2FF0E0EE0FBE
:10080000FF1FEB5EFD4FA591B491EC91ED2381E0CC
:1008100090E009F480E0DF91CF91089580E090E0CE
:10082000FACF1F93CF93DF93282F30E0F901ED59D2
:10083000FE4F8491F901EA50FE4FD491F901ED5D2C
:10084000FD4FC491CC23A9F0162F81110E949C0367
:10085000EC2FF0E0EE0FFF1FEB5AFE4FA591B49185
:100860008FB7F894EC91111108C0D095DE23DC937A
:100870008FBFDF91CF911F910895DE2BF8CFCF93DB
:10088000DF9390E0FC01EA50FE4F24918D5D9D4F77
:10089000FC0184918823C9F090E0880F991FFC0126
:1008A000E95BFE4FA591B491FC01EB5AFE4FC59157
:1008B000D49161110DC09FB7F8948C91209582233B
:1008C0008C938881282328839FBFDF91CF9108953F
:1008D000623051F49FB7F8943C91822F8095832326
:1008E0008C93E8812E2BEFCF8FB7F894EC912E2BC1
:1008F0002C938FBFEACFCF93DF93EC01842F4A83F1
:100900006B8361E00E943F0460E08B810E943F04A2
:1009100081E08C8360E08A81DF91CF910C94110497
:100920003FB7F8948091FF0390910004A0910104D7
:10093000B091020426B5A89B05C02F3F19F001967F
:10094000A11DB11D3FBFBA2FA92F982F8827BC0129
:10095000CD01620F711D811D911D42E0660F771F51
:10096000881F991F4A95D1F708958F929F92AF9251
:10097000BF92CF92DF92EF92FF926B017C010E94B7
:1009800090044B015C01C114D104E104F104B9F0FD
:100990000E949004681979098A099B09683E73408E
:1009A0008105910580F321E0C21AD108E108F10820
:1009B00088EE880E83E0981EA11CB11CE4CFFF9046
:1009C000EF90DF90CF90BF90AF909F908F90089561
:1009D0007F928F929F92AF92BF92CF92DF92EF92CF
:1009E000FF920F931F93CF93DF93C82E8B017A0151
:1009F00080915104811110C08FEF9FEFDF91CF9153
:100A00001F910F91FF90EF90DF90CF90BF90AF902C
:100A10009F908F907F9008958091150480FF05C06E
:100A20008091E00082608093E000CE2DDF2DD12CFC
:100A30008AEFB82E8C2D8770982E8C2D8072882E80
:100A40008C2D8074782E9AE3A92E209719F4DD203E
:100A500009F452C08C2D0E94B20281110AC0BA94CE
:100A6000BB2051F261E070E080E090E00E94B504AC
:100A7000ECCF8C171D0611F00CF08C2F9FB7F8945B
:100A80009092E9002091E80025FD02C09FBFDDCFD4
:100A9000282F30E0C21BD30B882029F08150A0F012
:100AA0001092F100FBCFF801C7FC0AC0815050F052
:100AB00041914093F100FACF44914093F100319677
:100AC0008150D0F7020F131FDD2021F0A092E80023
:100AD000D12CDCCF8091E80085FD07C0A092E80012
:100AE000DD24D394209791F2F3CF209779F67720E5
:100AF00069F2A092E800CACF5D9884E6809314045E
:100B0000C7017CCFCF93DF93EC0180911201882342
:100B100031F083E00E94E8041816190634F081E0F1
:100B200090E09B838A8380E090E0DF91CF910895ED
:100B30002FB7F8946091FB037091FC038091FD0343
:100B40009091FE032FBF0895CF92DF92EF92FF9214
:100B5000CF93DF93EC010E9498056B017C010E940A
:100B600098056C197D098E099F096F307105810503
:100B7000910558F48B810E94E803892B71F060E0A5
:100B800070E0CB010E94B504EACF80E0DF91CF9105
:100B9000FF90EF90DF90CF90089581E0F7CF089518
:100BA000EF92FF920F931F93CF93DF93082F162F8F
:100BB00060E00E94110462E0812F0E943F04CFE0B8
:100BC000D0E0CE010197F1F7812F0E94E8037C016C
:100BD00061E0802F0E9411042197F1F760E0802FDF
:100BE0000E94110461E0812F0E943F0481E0EF2800
:100BF00009F080E0DF91CF911F910F91FF90EF906E
:100C000008950F931F93CF93DF93082F162F60E063
:100C10000E941104CFE0D0E0CE010197F1F760E02F
:100C2000812F0E941104CE010197F1F761E0802F1E
:100C30000E9411042197F1F761E0812FDF91CF919C
:100C40001F910F910C941104CF93DF93D82FC62FCF
:100C500061E08C2F0E94110461E08D2F0E9411042D
:100C60008FE090E00197F1F760E08C2FDF91CF915A
:100C70000C941104CF92DF92EF92FF920F931F9387
:100C8000CF93DF93D82EC62ED42FC8E09FE0E92E55
:100C9000F12C60E08D2D0E9411040D2F10E061E019
:100CA000D0FF60E08C2D0E941104C7010197F1F77D
:100CB00015950795D02F61E08D2D0E941104C70175
:100CC0000197F1F7C15029F7DF91CF911F910F9153
:100CD000FF90EF90DF90CF9008951F93CF93DF9315
:100CE000C82FD62F142F0E942406412F6D2F8C2F32
:100CF0000E943A066D2F8C2F0E94D005182F6D2F61
:100D00008C2F0E940106812FDF91CF911F910895B2
:100D1000089590E080E00895DC01FB0112962C918B
:100D20001297848195812817190641F49181808159
:100D3000813A31F49D7F81E0913009F080E008959F
:100D40008132E1F79B3029F482811F968C9381E0F8
:100D500008959A3099F7828150968C93F8CFDC01F0
:100D6000FB0188E4808389E4818384E482831D9687
:100D70009C911D979F709F5B93831D968D919C9175
:100D800024E0969587952A95E1F78F708F5B848391
:100D900085E00895EF92FF920F931F93CF93DF9317
:100DA000FB012081213889F52381223271F5DC0194
:100DB00012964C91248135814217130631F58C012E
:100DC000FC01C385D485F12CE12C209791F04C8156
:100DD0005D816A817B818E81811180E80E948C0215
:100DE0008F3F980759F0E80EF91E0990D881C02D61
:100DF000ECCF81E0D8011F968C93C701DF91CF9192
:100E00001F910F91FF90EF90089590E080E0F6CF52
:100E1000CF93DF93CDB7DEB769970FB6F894DEBFF7
:100E20000FBECDBFFC01DB018C918F5F8C939E01C7
:100E30002D5F3F4F8DE0D9011D928A95E9F729E09A
:100E4000298384E08A8391E09D8383E08E832A87CF
:100E500021E22B879C879D879F8722E2288B27E0B2
:100E60002B8B25E02C8B8E8B20E430E0388F2F8B62
:100E7000998F82818B8395858685998B8A8B8381D7
:100E800080688D8B49E150E0BE016F5F7F4F80E04D
:100E90000E948C0269960FB6F894DEBF0FBECDBFDC
:100EA000DF91CF910895CF93DF938091F203811169
:100EB00067C081E08093E5038093E6032BEE33E087
:100EC0003093E8032093E7031092EA031092E903BA
:100ED00029EE31E03093E2032093E1031092ED0319
:100EE0001092EC031092EF031092EE038093F00344
:100EF0008093F10381EC8093EB030E94D002FC010C
:100F000081819091E503482F490F5527551F48309F
:100F100051059CF5A281B381109709F521EE33E0CC
:100F20003383228320812093E3038093E403809121
:100F3000E603820F80832091E703A22FB091E8039C
:100F40008A2F821B8917C8F481813D91C82FD0E078
:100F5000C050DF4F38838F5F8183F2CFD90118965D
:100F60002D913C91199721153105C1F721EE33E000
:100F700019963C932E931897D5CF81E08093F20376
:100F800081EE93E0DF91CF910895DC01ED91FD9129
:100F90008081ED91FD919081ED91FD916C91637057
:100FA0008E2309F064609F2309F06860E2EEF7E0A9
:100FB000E60FF11D659565956D936D917D918D9110
:100FC0009D91099423C01AC012C016C010C01EC043
:100FD00009C014C013C006C019C009C00DC007C0A5
:100FE0000DC014C062507040804090400BC06150F2
:100FF00070408040904006C06E5F01C06F5F7F4FC1
:101000008F4F9F4F9E938E937E936E930895809102
:10101000A2049091A3040C94C5078091A40490911C
:10102000A5040C94C5078091A6049091A7040C9484
:10103000C5078091A8049091A9040C94C5078091DC
:10104000AA049091AB040C94C5070895FF920F93E6
:101050001F93CF93DF93F82E062FC7E0D0E010E068
:1010600061E0802F0E9411048F2D0E94E8030C2E56
:1010700001C0880F0A94EAF7182B60E0802F0E94C5
:101080001104219768F7812FDF91CF911F910F9164
:10109000FF900895CF92DF92EF92FF920F931F93EC
:1010A000CF93DF93EC018B810E94E803892B91F0B1
:1010B000CE010E94A405811127C060E070E080E0AD
:1010C00090E8DF91CF911F910F91FF90EF90DF900B
:1010D000CF9008950E9498056B017C010E949805AD
:1010E0006C197D098E099F096F3071058105910585
:1010F00020F78B810E94E803892BD1F660E070E035
:10110000CB010E94B504EACF6A818B810E94260838
:10111000182F6A818B810E942608082F6A818B8193
:101120000E942608F82ED12CC12C8C818C151D0410
:1011300069F060F061E08A810E94110460E08A81B8
:101140000E9411048FEFC81AD80AEFCF602F70E009
:1011500090E080E0982F872F762F6627812B6F29CC
:10116000110F110B012F10E030E020E0302F22276B
:1011700011270027602B712B822B932BA2CF8F92EC
:101180009F92AF92BF92DF92EF92FF920F931F93C5
:10119000CF93DF9300D000D01F92CDB7DEB77C0194
:1011A0005B018A01D22EFC0186819A012D0D311D31
:1011B0008217130608F458C0CE0101964C0185E051
:1011C000F40111928A95E9F78D2D8770806C8983DF
:1011D000CE0102960E947D31F1E0FD1568F0F70125
:1011E0009485D11024C00230110508F18B81992318
:1011F000E1F090E8892B8B830F5FF701D580148194
:101200006D2D812F0E94240674018E2D8819801760
:10121000B8F4F70141917F016D2D812F0E943A06AC
:101220006D2D812F0E94D005F0CF90E0E3CF8A8111
:10123000992321F090E8892B8A83DECF90E0FBCFC1
:101240006D2D812F0F900F900F900F900F90DF91C9
:10125000CF911F910F91FF90EF90DF90BF90AF90D3
:101260009F908F900C940106182F1D19412F50E06C
:101270002D2DC7010E94BF08F7016285738590E09C
:1012800080E00E94B5040D5F011B11E0F70146816B
:10129000041790F050E0B501610F711D20E0C70107
:1012A0000E94BF08F7016285738590E080E00E948C
:1012B000B50401501F5FEACF0F900F900F900F9071
:1012C0000F90DF91CF911F910F91FF90EF90DF90E2
:1012D000BF90AF909F908F900895AF92BF92CF92A2
:1012E000DF92EF92FF920F931F93CF93DF93082F1C
:1012F00010E088E0F82EEE24E39490E2D92E20E16D
:10130000C22E34E0B32E42E0A42ED0E0C0E09C2FE9
:10131000E8EBF4E080E09E01285B3440981326C09F
:10132000E5868F5F31968430C9F720E044E050E0D5
:1013300065EC74E088EB94E00E94BF0862E370E023
:1013400080E090E00E94B5042196CC30D105F9F6FA
:101350001F5F0113DACFDF91CF911F910F91FF90A3
:10136000EF90DF90CF90BF90AF900895943029F424
:10137000833051F4A092C804D4CF953029F483303F
:1013800019F4B092C804CDCFA9014E0F5F1F4930A8
:10139000510511F4F586C5CF9A3029F481110AC0A0
:1013A000C092C504BECF9B3029F4811103C0D092F6
:1013B000C504B7CF1586B5CFCF93DF9300D000D04B
:1013C000CDB7DEB719821A821B821C8220E044E06E
:1013D00050E0BE016F5F7F4F88EB94E00E94BF0832
:1013E0001092C1040F900F900F900F90DF91CF914A
:1013F00008951F93CF93DF93CDB7DEB7C058D109BF
:101400000FB6F894DEBF0FBECDBF362F272F413861
:10141000510510F040E850E0BE016F5F7F4FA32FF1
:10142000B22F9B01F901E61BF70BE417F50770F4E7
:10143000ED9110E0E03234F00E2E000CFF0BE9537A
:10144000FF4F1491F90111939F01ECCFFC0121850D
:101450000E94BF08C058DF4F0FB6F894DEBF0FBE22
:10146000CDBFDF91CF911F9108951F93CF93DF934D
:10147000EC01162F89859E81891323C0BE01635F0D
:101480007F4F262FFB019E2F921B981718F49181F6
:101490009193F9CF898590E0E0E010323CF0E12FA4
:1014A000012E000CFF0BE953FF4FE4918C0F9D1FA1
:1014B000DC011D96EC934E8150E020E0CE010E94AD
:1014C000BF0849858E814817F0F450E0E0E0103203
:1014D00034F0E12F110FFF0BE953FF4FE491DE01D0
:1014E000A40FB51F1D96EC934F5F5F4F20E0BE0128
:1014F000635F7F4FCE010E94BF0889858F5F843074
:1015000008F083E08987DF91CF911F9108958F9232
:101510009F92AF92BF92CF92DF92EF92FF920F9382
:101520001F93CF93DF93CDB7DEB7ADB6BEB6809134
:1015300018052DB73EB7281B31090FB6F8943EBFEA
:101540000FBE2DBF8DB79EB701966C01E090E704EA
:10155000F12C8091E3049091E404D601FC019F01F9
:10156000281B390B2E153F051CF421912D93F7CF25
:101570008091E804882359F18091DF049091E00480
:1015800028E097FD09C068E671E00E942A306DE20C
:1015900070E00E942A30262F8091E1049091E204AD
:1015A00068E097FD08C068E671E00E942A306DE2AD
:1015B00070E00E942A30F601EE0DFF1D90E1699F58
:1015C000B0011124262B2083F70131967F0186017B
:1015D0000E0D1F1D2091ED043091EE044091EB049F
:1015E0005091EC046091C9047091CA048091E9049F
:1015F00081700E94E401E80EF91E86010E0D1F1D88
:101600002091F1043091F2044091EF045091F004E4
:101610006091CB047091CC048091E904869581702F
:101620000E94E401E80EF91E86010E0D1F1D209197
:10163000F5043091F6044091F3045091F404609164
:10164000CD047091CE048091E90482FB882780F953
:101650000E94E401E80EF91E86010E0D1F1D209167
:10166000F9043091FA044091F7045091F804609124
:10167000CF047091D0048091E90483FB882780F91E
:101680000E94E401E80EF91E86010E0D1F1D209137
:10169000FD043091FE044091FB045091FC046091E4
:1016A000D1047091D2048091E904829581700E94E6
:1016B000E401E80EF91E86010E0D1F1D20910105A3
:1016C000309102054091FF04509100056091D304D0
:1016D0007091D4048091E90485FB882780F90E94E9
:1016E000E401E80EF91E86010E0D1F1D209105056F
:1016F0003091060540910305509104056091D7048F
:101700007091D8048091EA0481700E94E401E80E8F
:10171000F91E86010E0D1F1D2091090530910A0545
:1017200040910705509108056091D5047091D60449
:101730008091EA04869581700E94E401E80EF91E0A
:1017400086010E0D1F1D20910D0530910E05409153
:101750000B0550910C056091D9047091DA048091C9
:10176000EA0482FB882780F90E94E401E80EF91E52
:1017700086010E0D1F1D209111053091120540911B
:101780000F05509110056091DB047091DC0480918D
:10179000EA0483FB882780F90E94E4018E0D9F1DD7
:1017A0008601080F191F20911505309116054091EB
:1017B0001305509114056091DD047091DE04809151
:1017C000EA04829581700E94E4010E9453074C0153
:1017D000409118058091170550E07A01FFEFEF1A4C
:1017E000FF0A2DB73EB72E193F090FB6F8943EBF3A
:1017F0000FBE2DBF0DB71EB70F5F1F4FEDB7FEB762
:101800008183B601C80101960E947D31F401838174
:10181000A701B80180640E94E8040FB6F894BEBE28
:101820000FBEADBEDF91CF911F910F91FF90EF9052
:10183000DF90CF90BF90AF909F908F900895282F0A
:101840008091E60461111BC0281768F5E091E3045C
:10185000F091E40481E090E0A0E0B0E004C0880FE3
:10186000991FAA1FBB1F2A95D2F7809590818923C3
:1018700080838091E5048823B1F00C94870A2817AF
:1018800090F4E091E304F091E40481E090E0A0E0C2
:10189000B0E004C0880F991FAA1FBB1F2A95D2F77A
:1018A0002081822BE5CF0895FB0101900020E9F70C
:1018B0003197AF01461B570BDC01ED91FC91028083
:1018C000F381E02D09948F929F92AF92BF920F9374
:1018D0001F93CF93DF93CDB7DEB7A1970FB6F894E0
:1018E000DEBF0FBECDBF19A2423008F44AE08E0120
:1018F0000F5D1F4F842E912CB12CA12CA5019401BA
:101900000E94CA2EE62FB901CA01EA3004F5E05D53
:10191000D801EE938D01232B242B252B79F790E012
:1019200080E0109729F0BD0182E594E00E94540CFC
:10193000A1960FB6F894DEBF0FBECDBFDF91CF9159
:101940001F910F91BF90AF909F908F900895E95C89
:10195000DFCFCF92DF92EF92FF92CF93DF936C01B4
:10196000990FEE08FF08F7FE17C08DE20E942B03C7
:10197000EC0166277727CB016C197D098E099F0939
:101980004AE00E94630C8C0F9D1FDF91CF91FF9066
:10199000EF90DF90CF9008954AE0C701B601DF9144
:1019A000CF91FF90EF90DF90CF900C94630C4F920B
:1019B0005F926F927F928F929F92AF92BF92CF92DF
:1019C000DF92EF92FF920F931F93CF936B017C01F5
:1019D000742EAC019B010E94153062E572E081110A
:1019E00026C046015701E894B7F82FEF3FEF4FE7C5
:1019F0005FE7C501B4010E94153081110CC02FEFC3
:101A00003FEF4FE75FE7C501B4010E94242D66E573
:101A100072E0181664F02FEF3FEF4FE75FE4C70165
:101A2000B6010E9410301816ACF46AE572E082E547
:101A300094E0CF911F910F91FF90EF90DF90CF90A6
:101A4000BF90AF909F908F907F906F905F904F90DE
:101A50000C94540C2FEF3FEF4FE75FECC701B6013A
:101A60000E94242D87FDE1CF20E030E0A901C701CD
:101A7000B6010E94242D10E000E087FF08C08DE22F
:101A80000E942B038C01F7FAF094F7F8F094C0E071
:101A900060E070E080E09FE37C1641F020E030E001
:101AA00040E251E40E94682FCF5FF6CFA701960174
:101AB0000E94FC2E2B013C010E94E12F4B015C0196
:101AC0004AE00E94630C7C01E00EF11ECC23B1F1D0
:101AD000C501B4010E94292D9B01AC01C301B201D3
:101AE0000E94FB2E4B015C018EE20E942B03E80E4C
:101AF000F91EC15018F120E030E040E251E4C50188
:101B0000B4010E948A2D2B013C010E94E12F4B0160
:101B1000B12CA12C4AE0C501B4010E94630CE80E6F
:101B2000F91EC501B4010E94292D9B01AC01C3011E
:101B3000B2010E94FB2E4B015C01DBCFC701CF91AC
:101B40001F910F91FF90EF90DF90CF90BF90AF90DB
:101B50009F908F907F906F905F904F900895CF925D
:101B6000DF92EF92FF92CF93DF936B017C01F7FE40
:101B70001FC08DE20E942B03EC0166277727CB0163
:101B80006C197D098E099F094AE00E94630CC80FF9
:101B9000D91F6EE572E082E594E00E94540C8C0F30
:101BA0009D1FDF91CF91FF90EF90DF90CF90089530
:101BB0004AE00E94630CEC01ECCFCF93DF93D0E0BE
:101BC000C0E0009731F0BC0182E594E00E94540C23
:101BD000EC016EE572E082E594E00E94540C8C0FFB
:101BE0009D1FDF91CF91089580911501811104C04F
:101BF00081E792E00C94DD0D81E692E0FBCF88371F
:101C000059F480911301811104C082E992E00C948F
:101C1000DD0D82E892E0FBCF893751F48091140109
:101C2000811103C083EB92E0F2CF83EA92E0EFCF21
:101C30008A3711F40C94F40D0895809125048823BB
:101C400021F084EC92E00C94DD0D83ED92E0FBCF6B
:101C5000CF93DF9342E00E94D70CEC016EE572E077
:101C600082E594E00E94540C8C0F9D1FDF91CF9170
:101C700008950C94540C883709F057C063EE72E055
:101C800082E594E00E94390E88E70E942B0361E40C
:101C900073E082E594E00E94390E80916601909194
:101CA00067010E94A90C61E473E082E594E00E9460
:101CB000390E80916801909169010E94A90C61E43C
:101CC00073E082E594E00E94390E80916A01909160
:101CD0006B010E94A90C61E473E082E594E00E942C
:101CE000390E80916C0190916D010E94A90C61E404
:101CF00073E082E594E00E94390E80916E0190912C
:101D00006F010E94A90C61E473E082E594E00E94F7
:101D1000390E80917001909171010E94A90C6FE5BC
:101D200072E082E594E00C94390E893709F050C0D6
:101D300063EE72E082E594E00E94390E89E70E942A
:101D40002B0361E473E082E594E00E94390E8091F8
:101D50007201909173010E94A90C61E473E082E525
:101D600094E00E94390E80917401909175010E9457
:101D7000A90C61E473E082E594E00E94390E809141
:101D80007601909177010E94A90C61E473E082E5ED
:101D900094E00E94390E80917801909179010E941F
:101DA000A90C61E473E082E594E00E94390E809111
:101DB0007A0190917B010E94A90C61E473E082E5B5
:101DC00094E00E94390E80917C0190917D01A5CF15
:101DD0008A3709F050C063EE72E082E594E00E9419
:101DE000390E8AE70E942B0361E473E082E594E0F8
:101DF0000E94390E80917E0190917F010E94A90C72
:101E000061E473E082E594E00E94390E80918001E4
:101E1000909181010E94A90C61E473E082E594E055
:101E20000E94390E80918201909183010E94A90C39
:101E300061E473E082E594E00E94390E80918401B0
:101E4000909185010E94A90C61E473E082E594E021
:101E50000E94390E80918601909187010E94A90C01
:101E600061E473E082E594E00E94390E809188017C
:101E70009091890152CF0895CF92DF92EF92FF9215
:101E8000CF93C82F883701F5C0905201D0905301ED
:101E9000E0905401F09055016AEE72E082E594E022
:101EA0000E94390E8C2F0E942B0361E473E082E5BF
:101EB00094E00E94390EC701B601CF91FF90EF90D8
:101EC000DF90CF900C94280E893749F4C0905A01C6
:101ED000D0905B01E0905C01F0905D01DDCF8A372E
:101EE000D9F6C0905E01D0905F01E0906001F09063
:101EF0006101D2CFCF92DF92EF92FF92CF938837DA
:101F000009F5C0905601D0905701E0905801F0902B
:101F10005901C82F65EF72E082E594E00E94390E06
:101F20008C2F0E942B0361E473E082E594E00E9411
:101F3000390EC701B601CF91FF90EF90DF90CF909F
:101F40000C94280E893759F08A3719F7C09062012E
:101F5000D0906301E0906401F0906501DACFCF91F9
:101F6000FF90EF90DF90CF900895CF92DF92EF92A5
:101F7000FF92CF93C82F883701F5C0903E01D090D3
:101F80003F01E0904001F09041016DEF72E082E589
:101F900094E00E94390E8C2F0E942B0361E473E0C1
:101FA00082E594E00E94390EC701B601CF91FF90FF
:101FB000EF90DF90CF900C94280E893749F4C090B1
:101FC0004601D0904701E0904801F0904901DDCFF3
:101FD0008A37D9F6C0904E01D0904F01E090500161
:101FE000F0905101D2CFCF92DF92EF92FF92CF9338
:101FF000C82F883701F5C0903A01D0903B01E0909E
:102000003C01F0903D0162E073E082E594E00E94C3
:10201000390E8C2F0E942B0361E473E082E594E07B
:102020000E94390EC701B601CF91FF90EF90DF906B
:10203000CF900C94280E893749F4C0904201D0907B
:102040004301E0904401F0904501DDCF8A37D9F695
:10205000C0904A01D0904B01E0904C01F0904D01AE
:10206000D2CFCF92DF92EF92FF92CF93C82F8837D3
:1020700001F5C0902E01D0902F01E0903001F0903A
:10208000310167E073E082E594E00E94390E8C2F05
:102090000E942B0361E473E082E594E00E94390E14
:1020A000C701B601CF91FF90EF90DF90CF900C94D5
:1020B000AF0D893749F4C0903201D0903301E090E0
:1020C0003401F0903501DDCF8A37D9F6C090360162
:1020D000D0903701E0903801F0903901D2CFCF9203
:1020E000DF92EF92FF920F931F93CF93DF93CDB7C1
:1020F000DEB7CB57D1090FB6F894DEBF0FBECDBF08
:10210000CE0101967C0110E000E06C01C8010E9444
:102110004B2EF70181937F010F5F1F4F0B37110586
:10212000A9F7C6010E945301EC960CAD1DAD2EAD72
:102130003FADEC97061717072807390709F068C065
:1021400087E7F601A3E1B1E001900D928A95E1F7EE
:1021500082EEE82E81E0F82E95EEC92E91E0D92E80
:10216000F70111917F01812F0E943B0E812F0E9468
:102170003C0F812F0E947A0F812F0E94B50F812F73
:102180000E94F30F812F0E943110CE14DF0441F71B
:1021900080912E0190912F01A0913001B0913101D9
:1021A00080931E0590931F05A0932005B0932105F1
:1021B0008091320190913301A0913401B0913501A9
:1021C00080932B0590932C05A0932D05B0932E059D
:1021D0008091360190913701A0913801B091390179
:1021E0008093380590933905A0933A05B0933B0549
:1021F000C558DF4F0FB6F894DEBF0FBECDBFDF91DD
:10220000CF911F910F91FF90EF90DF90CF900895A5
:102210008DE093E00E94DD0D85E00E946D098FEF57
:102220009FEF90938B0180938A0192CFCF92DF92A0
:10223000EF92FF92CF93C82F883701F5C09022010B
:10224000D0902301E0902401F090250164E373E035
:1022500082E594E00E94390E8C2F0E942B0361E4EA
:1022600073E082E594E00E94390EC701B601CF9178
:10227000FF90EF90DF90CF900C94280E893749F4AF
:10228000C0902601D0902701E0902801F09029010C
:10229000DDCF8A37D9F6C0902A01D0902B01E0908B
:1022A0002C01F0902D01D2CFCF92DF92EF92FF92CE
:1022B000CF93C82F883701F5C0901601D090170131
:1022C000E0901801F09019016CE373E082E594E06E
:1022D0000E94390E8C2F0E942B0361E473E082E58B
:1022E00094E00E94390EC701B601CF91FF90EF90A4
:1022F000DF90CF900C94280E893749F4C0901A01D2
:10230000D0901B01E0901C01F0901D01DDCF8A37B9
:10231000D9F6C0901E01D0901F01E0902001F090EE
:102320002101D2CF2F923F924F925F926F927F9274
:102330008F929F92AF92BF92CF92DF92EF92FF92D5
:102340000F931F93CF93DF9300D000D000D0CDB771
:10235000DEB781309105A1F18230910509F441C0C9
:102360002091130121114EC01092190410921A04E9
:1023700010921B0410921C041092CA041092C904FB
:102380008091E504882311F40C94C21A26960FB6A6
:10239000F894DEBF0FBECDBFDF91CF911F910F919B
:1023A000FF90EF90DF90CF90BF90AF909F908F9075
:1023B0007F906F905F904F903F902F900C94870A82
:1023C0002091140121111EC010921D0410921E04B0
:1023D00010921F04109220041092CC041092CB048F
:1023E000CFCF2091150121110DC010922104109220
:1023F000220410922304109224041092CE0410920E
:10240000CD04BECF9A8389832DE0AC01249FC00107
:10241000259F900D1124875E9A4F0E944A080981DA
:102420001A8102521C4FD80161157105810550E8CF
:10243000950709F056C18C918F5F8C938436A8F074
:1024400063E473E082E594E00E94390EE981FA8149
:10245000EE51FE4F80810E942B036EE572E082E513
:1024600094E00E94540CF8011082E981FA81E13075
:10247000F10509F416C4329709F4ACC5809019042B
:1024800090901A04A0901B04B0901C04C0901904F2
:10249000D0901A04E0901B04F0901C0420912201BB
:1024A00030912301409124015091250160E070E0BA
:1024B00080E89FE30E94FB2E2B013C01A7019601BF
:1024C000C501B4010E94FB2E9B01AC01C301B20106
:1024D0000E948A2DA70196010E94FC2E7B018E830B
:1024E0009D8380903E0190903F01A0904001B0906C
:1024F000410120913A0130913B0140913C015091C2
:102500003D0129833A834B835C83C501B4010E945A
:10251000FB2E20E030E048EC52E40E94682F2B01B3
:102520003C0120915201309153014091540150914E
:1025300055010E948A2D29813A814B815C810E943C
:10254000FC2E1B016C0120915601309157014091E6
:10255000580150915901C301B2010E948A2D9B017B
:10256000AC01C501B4010E94FB2E5B018C019101FD
:10257000A601B7018E819D810E94242D87FDD6C0C2
:102580009501A801B7018E819D810E941030181617
:102590001CF475010E831D83C701AE81BD8180933C
:1025A000190490931A04A0931B04B0931C04B10166
:1025B000C6010E94E12F2B013C01B7018E819D8154
:1025C0000E94E12F9B01AC012419350946095709E6
:1025D000AFEFBFEF0E94802E6B017C01B501C801F7
:1025E0000E94E12F9B01AC012419350946095709C6
:1025F000C701B6010E94CA2EC90169017A01EE2401
:10260000FF24843333E3930708F09EC06091680190
:1026100070916901072E000C880B990B0E942B2DDD
:1026200026E636ED43E254E40E948A2D4B015C011C
:1026300020E030E0A9010E94103020E030E040E0CE
:102640005FE387FD77C0C501B4010E94FC2E0E94A4
:10265000DA2F4B015C016091660170916701072ED2
:10266000000C880B990B0E942B2D26E636ED43E2D9
:1026700054E40E948A2D2B013C0120E030E0A901A6
:102680000E94103020E030E040E05FE387FD57C05B
:10269000C301B2010E94FC2E0E94DA2F2B013C01E3
:1026A000A50194012419350946095709C701B60146
:1026B0000E941A3023E333E340E050E00E94CA2E28
:1026C000420E531E641E751E5092DD034092DC03C1
:1026D0008091DC039091DD039093CA048093C90438
:1026E0004FCE1C92E981FA81E130F10509F4AEC1C7
:1026F000329709F4A8C500912E0110912F01209165
:10270000300130913101601B710B820B930B0E94E1
:102710002B2D2091160130911701409118015091F5
:1027200019010E94682F4B015C01B0CE7101CE826D
:10273000DD8232CFC501B4010E94FB2E88CFC301D8
:10274000B2010E94FB2EA8CF873646E6940708F018
:1027500061C060916A0170916B01072E000C880BBB
:10276000990B0E942B2D26E636ED43E254E40E949D
:102770008A2D4B015C0120E030E0A9010E9410305D
:1027800020E030E040E05FE387FD3AC0C501B401DE
:102790000E94FC2E0E94DA2F4B015C0160916801BF
:1027A00070916901072E000C880B990B0E942B2D4C
:1027B00026E636ED43E254E40E948A2D2B013C01CB
:1027C00020E030E0A9010E94103020E030E040E03D
:1027D0005FE387FD1AC0C301B2010E94FC2E0E9474
:1027E000DA2F2B013C01A701960123533343410902
:1027F0005109C501B401641975098609970958CFB3
:10280000C501B4010E94FB2EC5CFC301B2010E94D5
:10281000FB2EE5CF8A3959E9950708F05BC0609136
:102820006C0170916D01072E000C880B990B0E94B2
:102830002B2D26E636ED43E254E40E948A2D4B010F
:102840005C0120E030E0A9010E94103020E030E07F
:1028500040E05FE387FD34C0C501B4010E94FC2E57
:102860000E94DA2F4B015C0160916A0170916B014B
:10287000072E000C880B990B0E942B2D26E636EDB7
:1028800043E254E40E948A2D2B013C0120E030E019
:10289000A9010E94103020E030E040E05FE387FDB6
:1028A00014C0C301B2010E94FC2E0E94DA2F2B013A
:1028B0003C01A7019601265636464109510999CF98
:1028C000C501B4010E94FB2ECBCFC301B2010E940F
:1028D000FB2EEBCFA0916E01B0916F01BA83A9835B
:1028E0008D3C9C4C08F059C0E981FA81BF01FF0F73
:1028F000880B990B0E942B2D26E636ED43E254E41B
:102900000E948A2D4B015C0120E030E0A9010E9469
:10291000103020E030E040E05FE387FD34C0C501C7
:10292000B4010E94FC2E0E94DA2F4B015C016091E1
:102930006C0170916D01072E000C880B990B0E94A1
:102940002B2D26E636ED43E254E40E948A2D2B011E
:102950003C0120E030E0A9010E94103020E030E08E
:1029600040E05FE387FD14C0C301B2010E94FC2E6A
:102970000E94DA2F2B013C01A70196012959394900
:102980004109510936CFC501B4010E94FB2ECBCFBE
:10299000C301B2010E94FB2EEBCF609170017091D8
:1029A0007101072E000C880B990B0E942B2D26E637
:1029B00036ED43E254E40E948A2D4B015C0120E095
:1029C00030E0A9010E94103020E030E040E05FE3F9
:1029D00087FD32C0C501B4010E94FC2E0E94DA2F8F
:1029E0004B015C0129813A81B901330F880B990BA6
:1029F0000E942B2D26E636ED43E254E40E948A2DF8
:102A00002B013C0120E030E0A9010E94103020E0C1
:102A100030E040E05FE387FD14C0C301B2010E94D3
:102A2000FC2E0E94DA2F2B013C01A70196012C5CA1
:102A30003C4C41095109DDCEC501B4010E94FB2E79
:102A4000CDCFC301B2010E94FB2EEBCF009132012A
:102A5000109133012091340130913501601B710BCD
:102A6000820B930B0E942B2D20911A0130911B0198
:102A700040911C0150911D010E94682F4B015C0187
:102A8000C0901D04D0901E04E0901F04F09020041C
:102A90002091260130912701409128015091290170
:102AA00060E070E080E89FE30E94FB2E2B013C0178
:102AB000A7019601C501B4010E94FB2E9B01AC0148
:102AC000C301B2010E948A2DA70196010E94FC2E2B
:102AD0007B018D839983C0904601D090470100917E
:102AE0004801109149018090420190904301A090CB
:102AF0004401B0904501A5019401B601C8010E94AE
:102B0000FB2E20E030E048EC52E40E94682F209138
:102B10005A0130915B0140915C0150915D010E942E
:102B20008A2DA50194010E94FC2E4B015C019B01A2
:102B3000AC01B7018D8199810E94242D87FDBAC017
:102B40009601A801B7018D8199810E941030181655
:102B50001CF476010D831983C701AD81B98180937F
:102B60001D0490931E04A0931F04B0932004B4018D
:102B7000C5010E94E12F4B015C01B7018D81998154
:102B80000E94E12F9B01AC01281939094A095B0910
:102B9000AFEFBFEF0E94802E2B013C01B601C801B0
:102BA0000E94E12F9B01AC01281939094A095B09F0
:102BB000C301B2010E94CA2EC90169017A01EE2443
:102BC000FF24843333E3930708F082C060917401DB
:102BD00070917501072E000C880B990B0E942B2D0C
:102BE00026E636ED43E254E40E948A2D4B015C0157
:102BF00020E030E0A9010E94103020E030E040E009
:102C00005FE387FD5BC0C501B4010E94FC2E0E94FA
:102C1000DA2F4B015C016091720170917301072EF4
:102C2000000C880B990B0E942B2D26E636ED43E213
:102C300054E40E948A2D2B013C0120E030E0A901E0
:102C40000E94103020E030E040E05FE387FD3BC0B1
:102C5000C301B2010E94FC2E0E94DA2F2B013C011D
:102C6000A50194012419350946095709C701B60180
:102C70000E941A3023E333E340E050E00E94CA2E62
:102C8000420E531E641E751E509218044092170483
:102C900080911704909118049093CC048093CB04F6
:102CA0006FCB80901D0490901E04A0901F04B090E4
:102CB0002004E6CE7401AD82B9824ECFC501B401C5
:102CC0000E94FB2EA4CFC301B2010E94FB2EC4CFF1
:102CD000873646E6940708F061C0609176017091EE
:102CE0007701072E000C880B990B0E942B2D26E6EE
:102CF00036ED43E254E40E948A2D4B015C0120E052
:102D000030E0A9010E94103020E030E040E05FE3B5
:102D100087FD3AC0C501B4010E94FC2E0E94DA2F43
:102D20004B015C016091740170917501072E000CDC
:102D3000880B990B0E942B2D26E636ED43E254E4D6
:102D40000E948A2D2B013C0120E030E0A9010E9465
:102D5000103020E030E040E05FE387FD1AC0C3019F
:102D6000B2010E94FC2E0E94DA2F2B013C01A70128
:102D700096012353334341095109C501B401641934
:102D800075098609970974CFC501B4010E94FB2E0D
:102D9000C5CFC301B2010E94FB2EE5CF8A3959E9A4
:102DA000950708F05BC06091780170917901072E5A
:102DB000000C880B990B0E942B2D26E636ED43E282
:102DC00054E40E948A2D4B015C0120E030E0A9010F
:102DD0000E94103020E030E040E05FE387FD34C027
:102DE000C501B4010E94FC2E0E94DA2F4B015C0148
:102DF0006091760170917701072E000C880B990B7A
:102E00000E942B2D26E636ED43E254E40E948A2DE3
:102E10002B013C0120E030E0A9010E94103020E0AD
:102E200030E040E05FE387FD14C0C301B2010E94BF
:102E3000FC2E0E94DA2F2B013C01A7019601265699
:102E400036464109510999CFC501B4010E94FB2EB4
:102E5000CBCFC301B2010E94FB2EEBCFA0917A0130
:102E6000B0917B01BA83A9838D3C9C4C08F059C07A
:102E7000E981FA81BF01FF0F880B990B0E942B2D6E
:102E800026E636ED43E254E40E948A2D4B015C01B4
:102E900020E030E0A9010E94103020E030E040E066
:102EA0005FE387FD34C0C501B4010E94FC2E0E947F
:102EB000DA2F4B015C016091780170917901072E46
:102EC000000C880B990B0E942B2D26E636ED43E271
:102ED00054E40E948A2D2B013C0120E030E0A9013E
:102EE0000E94103020E030E040E05FE387FD14C036
:102EF000C301B2010E94FC2E0E94DA2F2B013C017B
:102F0000A7019601295939494109510936CFC5010F
:102F1000B4010E94FB2ECBCFC301B2010E94FB2E55
:102F2000EBCF60917C0170917D01072E000C880B26
:102F3000990B0E942B2D26E636ED43E254E40E94C5
:102F40008A2D4B015C0120E030E0A9010E94103085
:102F500020E030E040E05FE387FD32C0C501B4010E
:102F60000E94FC2E0E94DA2F4B015C0129813A81DC
:102F7000B901330F880B990B0E942B2D26E636EDF5
:102F800043E254E40E948A2D2B013C0120E030E012
:102F9000A9010E94103020E030E040E05FE387FDAF
:102FA00014C0C301B2010E94FC2E0E94DA2F2B0133
:102FB0003C01A70196012C5C3C4C41095109DDCE36
:102FC000C501B4010E94FB2ECDCFC301B2010E9406
:102FD000FB2EEBCF8090210490902204A09023043C
:102FE000B0902404C0902104D0902204E0902304E7
:102FF000F090240420912A0130912B0140912C0162
:1030000050912D0160E070E080E89FE30E94FB2E6C
:103010002B013C01A7019601C501B4010E94FB2EC2
:103020009B01AC01C301B2010E948A2DA701960148
:103030000E94FC2E7B018E839D8380904E01909098
:103040004F01A0905001B090510180914A019091A0
:103050004B01A0914C01B0914D0189839A83AB83C0
:10306000BC839C01AD01C501B4010E94FB2E20E090
:1030700030E048EC52E40E94682F2B013C01209183
:103080005E0130915F0140916001509161010E94A9
:103090008A2D29813A814B815C810E94FC2E1B0183
:1030A0008C01209162013091630140916401509143
:1030B0006501C301B2010E948A2D9B01AC01C501CB
:1030C000B4010E94FB2E5B016C019101A801B701C4
:1030D0008E819D810E94242D87FDD0C09501A6017F
:1030E000B7018E819D810E94103018161CF4750165
:1030F000CE82DD82C701AE81BD8180932104909391
:103100002204A0932304B0932404B101C8010E94B7
:10311000E12F2B013C01B7018E819D810E94E12F9F
:103120009B01AC012419350946095709AFEFBFEFE0
:103130000E94802E69837A838B839C83B501C601AC
:103140000E94E12F9B01AC0124193509460957095A
:1031500069817A818B819C810E94CA2E3A8329835E
:1031600069017A01EE24FF242433334308F094C02C
:103170006091800170918101072E000C880B990BE2
:103180000E942B2D26E636ED43E254E40E948A2D60
:103190004B015C0120E030E0A9010E94103020E0EA
:1031A00030E040E05FE387FD6DC0C501B4010E94DF
:1031B000FC2E0E94DA2F4B015C0160917E01709120
:1031C0007F01072E000C880B990B0E942B2D26E601
:1031D00036ED43E254E40E948A2D2B013C0120E0AD
:1031E00030E0A9010E94103020E030E040E05FE3D1
:1031F00087FD4DC0C301B2010E94FC2E0E94DA2F50
:103200002B013C01C501B4016419750986099709B0
:10321000A70196010E941A3023E333E340E050E017
:103220000E94CA2E420E531E641E751E5092DB036E
:103230004092DA038091DA039091DB039093CE04FD
:103240008093CD049DC800913601109137012091E3
:10325000380130913901601B710B820B930B0E9476
:103260002B2D20911E0130911F0140912001509182
:1032700021010E94682F4B015C01B4CE71010E83C5
:103280001D8338CFC501B4010E94FB2E92CFC3012C
:10329000B2010E94FB2EB2CFA981BA81A736B646F1
:1032A00008F061C06091820170918301072E000CCB
:1032B000880B990B0E942B2D26E636ED43E254E451
:1032C0000E948A2D4B015C0120E030E0A9010E94A0
:1032D000103020E030E040E05FE387FD3AC0C501F8
:1032E000B4010E94FC2E0E94DA2F4B015C01609118
:1032F000800170918101072E000C880B990B0E94B0
:103300002B2D26E636ED43E254E40E948A2D2B0154
:103310003C0120E030E0A9010E94103020E030E0C4
:1033200040E05FE387FD1AC0C301B2010E94FC2E9A
:103330000E94DA2F2B013C01A7019601235333434E
:1033400041095109C501B401641975098609970934
:1033500061CFC501B4010E94FB2EC5CFC301B201EC
:103360000E94FB2EE5CF29813A812A39394908F09C
:103370005BC06091840170918501072E000C880B61
:10338000990B0E942B2D26E636ED43E254E40E9471
:103390008A2D4B015C0120E030E0A9010E94103031
:1033A00020E030E040E05FE387FD34C0C501B401B8
:1033B0000E94FC2E0E94DA2F4B015C016091820179
:1033C00070918301072E000C880B990B0E942B2D06
:1033D00026E636ED43E254E40E948A2D2B013C019F
:1033E00020E030E0A9010E94103020E030E040E011
:1033F0005FE387FD14C0C301B2010E94FC2E0E944E
:10340000DA2F2B013C01A7019601265636464109C9
:10341000510998CFC501B4010E94FB2ECBCFC30147
:10342000B2010E94FB2EEBCF609186017091870163
:10343000072E000C880B990B0E942B2D26E636EDEB
:1034400043E254E40E948A2D2B013C0189819A8138
:103450008D3C9C4C08F04BC020E030E0A901C3013A
:10346000B2010E94103020E030E040E05FE387FDD1
:1034700034C0C301B2010E94FC2E0E94DA2F4B011E
:103480005C016091840170918501072E000C880B0E
:10349000990B0E942B2D26E636ED43E254E40E9460
:1034A0008A2D2B013C0120E030E0A9010E94103060
:1034B00020E030E040E05FE387FD14C0C301B201CB
:1034C0000E94FC2E0E94DA2F2B013C01A7019601DD
:1034D000295939494109510935CFC301B2010E9427
:1034E000FB2ECBCFC301B2010E94FB2EEBCF60912C
:1034F000880170918901072E000C880B990B0E949E
:103500002B2D26E636ED43E254E40E948A2D4B0132
:103510005C0120E030E0A9010E94103020E030E0A2
:1035200040E05FE387FD24C0C501B4010E94FC2E8A
:103530000E94DA2F4B015C0120E030E0A901C301B9
:10354000B2010E94103020E030E040E05FE387FDF0
:1035500014C0C301B2010E94FC2E0E94DA2F2B017D
:103560003C01A70196012C5C3C4C41095109EACE73
:10357000C501B4010E94FB2EDBCFC301B2010E9442
:10358000FB2EEBCF26960FB6F894DEBF0FBECDBF55
:10359000DF91CF911F910F91FF90EF90DF90CF902F
:1035A000BF90AF909F908F907F906F905F904F9063
:1035B0003F902F900895DF92EF92FF920F931F9309
:1035C000CF93DF93CDB7DEB7CB57D1090FB6F894C1
:1035D000DEBF0FBECDBF87E7E3E1F1E0DE0111966C
:1035E00001900D928A95E1F7CE0101960E94530158
:1035F000EC966CAF7DAF8EAF9FAFEC978E010F5FF7
:103600001F4FF12CE12CF801D1908F01C7010E94CE
:103610004B2ED81621F06D2DC7010E94532EFFEFBF
:10362000EF1AFF0A8BE7E816F10469F78EE593E0DD
:103630000E94DD0D81E00E946D098FEF9FEF909356
:103640008B0180938A01C558DF4F0FB6F894DEBF17
:103650000FBECDBFDF91CF911F910F91FF90EF90E3
:10366000DF9008950C94F4301F920F920FB60F92D2
:1036700011248F939F938091E1009091E100937FBB
:103680009093E10083FF0FC01092E90091E09093C6
:10369000EB001092EC0092E39093ED001092510435
:1036A00098E09093F00082FF22C093E09093E900AD
:1036B0009091F200992319F09AE39093E800909189
:1036C0001404992341F090911404915090931404A0
:1036D000911101C05D9A90915004992341F090910D
:1036E0005004915090935004911101C0289A84FF86
:1036F00018C08091E2008E7E81608093E20080910C
:10370000E1008F7E8093E100809115048E7E8061C0
:10371000809315049F918F910F900FBE0F901F9073
:10372000189580FFF7CF8091E2008E7E80618093B4
:10373000E2008091E1008E7E8093E100809115048B
:103740008E7E8160E5CF1F920F920FB60F921124EB
:10375000CF92DF92EF92FF920F931F932F933F939D
:103760004F935F936F937F938F939F93AF93BF9389
:10377000EF93FF93CF93DF93CDB7DEB76C97DEBFA8
:10378000CDBF1092E9008091E80083FF25C068E07A
:10379000CE0145960E94C30282EF8093E8008D8996
:1037A00087FF39C09091E80090FFFCCF982F90766A
:1037B00009F034C19E894F89588D2F89F88C911159
:1037C00031C0803861F5809116048093F100109229
:1037D000F1008EEF8093E8006C960FB6F894DEBF90
:1037E0000FBECDBFDF91CF91FF91EF91BF91AF9110
:1037F0009F918F917F916F915F914F913F912F9109
:103800001F910F91FF90EF90DF90CF900F900FBE20
:103810000F901F9018959EEF9093E800C7CF1092DD
:10382000F100D5CF913059F48111D3CF41305105FA
:1038300081F6809116048D7F80931604CACF933051
:1038400049F48111C6CF4130510519F68091160413
:103850008260F2CF953041F48091E80080FFFCCF88
:1038600020682093E300B5CF963009F0A9C00B8DF6
:103870001C8D22E01092E9001092120410921104A3
:10388000F2122EC01092100410920F040E94E40253
:103890001F8299E09983FA8291E09E8390EA98874B
:1038A0009AEF99872091110430911204275F3F4FBE
:1038B0003C832B838D831092E900109212041092A6
:1038C00011041093100400930F0449E050E0BE016E
:1038D0006F5F7F4F80E00E948C020E94E40279CFEC
:1038E0001093100400930F040E94D002DC01129682
:1038F0000D911C910115110509F451C1D801ED91EB
:10390000FC910480F581E02DBE016B5E7F4FC80104
:103910000995009709F03EC1F80100851185EACFAD
:10392000F3E0FF120EC08F89882309F440C0823073
:1039300061F440E86BE086EE91E00E94E21E8111A6
:1039400048CF81E28093EB0047CF813029F440E8F3
:103950006BE08AED91E0F1CF833099F70E94D002BD
:10396000DC011296ED90FC908E010F5F1F4F6801F5
:10397000E114F10479F0D701ED91FC910680F78113
:10398000E02DB801C7010995080F111DF701E0846A
:10399000F184EECFD8011C92F60101900020E9F7E6
:1039A0003197BF016C197D0940E0C601C6CF64ECB8
:1039B00071E0FB01449150E080E80E948C0209CF45
:1039C000973009F4BECF983021F481E08093F10064
:1039D00000CF993009F0FDCE837009F0B2CFE1E05D
:1039E000F1E081E031E096E32191222371F08093B0
:1039F000E9003093EB00DF0111972C912093EC004C
:103A00009093ED008F5F873079F78EE78093EA001F
:103A10001092EA008F8980935104DBCE8B8D9C8DB0
:103A20001092E90010921204109211049093100465
:103A300080930F04898D811192C08E899D89913A5E
:103A400049F4813209F07DCF47E050E06BE071E04E
:103A500080E0B3CF913209F074CF833269F48F895B
:103A6000988DB0E0A0E08093070190930801A093A7
:103A70000901B0930A01ADCE803269F48091E8006B
:103A800082FFFCCF67E08BE091E00E94C3028BEFE6
:103A90008093E8009ECE823209F09BCE8F8980937E
:103AA0001201EEEFFFE7859194918B3F9C4D51F110
:103AB000E0E0F8E080910B0190910C01A0910D01E4
:103AC000B0910E01803B9440A105B105F1F48091C5
:103AD000120180FD1AC0EE3F8AE0F80789F587E7FA
:103AE00097E791838083809160008093130488E13D
:103AF0009BE00FB6F894A895809360000FBE90935A
:103B0000600067CEEEEFFAE0D5CF808191818737F4
:103B1000974709F05ECEA8958091600088618093F8
:103B200060008091130480936000EE3F2AE0F2076A
:103B300089F08091FE0A9091FF0A9183808349CE9B
:103B4000808191818737980751F29093FF0A809383
:103B5000FE0AC5CF1092FF0A1092FE0A3ACE0E94CA
:103B6000D002DC0112960D911C910115110509F48A
:103B7000E8CED801ED91FC910190F081E02DBE01DD
:103B80006B5E7F4FC8010995811123CEF801008536
:103B90001185EBCF181619060CF41BCED2CEF1E02E
:103BA000FF12BECE68EC71E004CF1F920F920FB6E9
:103BB0000F9211242F933F938F939F93AF93BF93B3
:103BC0008091FB039091FC03A091FD03B091FE0353
:103BD0003091FA0323E0230F2D3758F50196A11DEC
:103BE000B11D2093FA038093FB039093FC03A093F1
:103BF000FD03B093FE038091FF0390910004A09118
:103C00000104B09102040196A11DB11D8093FF0330
:103C100090930004A0930104B0930204BF91AF916C
:103C20009F918F913F912F910F900FBE0F901F90FA
:103C3000189526E8230F0296A11DB11DD2CF1F9221
:103C40000F920FB60F9211242F933F934F935F93D0
:103C50006F937F938F939F93AF93BF93EF93FF9354
:103C6000E0919601F09197010995FF91EF91BF9135
:103C7000AF919F918F917F916F915F914F913F9104
:103C80002F910F900FBE0F901F9018951F920F92BB
:103C90000FB60F9211242F933F934F935F936F931F
:103CA0007F938F939F93AF93BF93EF93FF93E09195
:103CB0009401F09195010995FF91EF91BF91AF911A
:103CC0009F918F917F916F915F914F913F912F9134
:103CD0000F900FBE0F901F9018951F920F920FB666
:103CE0000F9211242F933F934F935F936F937F9382
:103CF0008F939F93AF93BF93EF93FF93E0919201C4
:103D0000F09193010995FF91EF91BF91AF919F9130
:103D10008F917F916F915F914F913F912F910F9074
:103D20000FBE0F901F9018951F920F920FB60F9213
:103D300011242F933F934F935F936F937F938F93B0
:103D40009F93AF93BF93EF93FF93E0919001F09116
:103D500091010995FF91EF91BF91AF919F918F9143
:103D60007F916F915F914F913F912F910F900FBE77
:103D70000F901F9018951F920F920FB60F9211245B
:103D80002F933F934F935F936F937F938F939F9363
:103D9000AF93BF93EF93FF93E0918E01F0918F016A
:103DA0000995FF91EF91BF91AF919F918F917F9175
:103DB0006F915F914F913F912F910F900FBE0F9098
:103DC0001F901895EF92FF920F931F93CF93DF935D
:103DD000F82E192FE62E042F81E0860F880F0E94FF
:103DE0005E0283E00E945E02CF2DD12FEC0EFD2EED
:103DF000F11CCE15DF05B9F007FF13C0FE01849159
:103E00000E945E02182F80E00E945E0281232196AC
:103E10008111EFCFDF91CF911F910F91FF90EF9024
:103E200008958881EDCF81E0F5CFEF92FF920F9357
:103E30001F93CF93DF93CDB7DEB7C659D1090FB625
:103E4000F894DEBF0FBECDBF1092550410925404FB
:103E500088EE93E0A0E0B0E080935604909357047E
:103E6000A0935804B093590480E392E090935304D4
:103E7000809352048FEF9FEF90935F0480935E04D2
:103E80002EE432E030931A052093190510921E0596
:103E900010921F05109220051092210580E090E0FD
:103EA000A0E8BFE38093220590932305A093240507
:103EB000B0932505309327052093260510922B05F6
:103EC00010922C0510922D0510922E0580932F052F
:103ED00090933005A0933105B093320530933405AB
:103EE00020933305109238051092390510923A0547
:103EF00010923B0580933C0590933D05A0933E05B1
:103F0000B0933F051092E4041092E3041092E7048A
:103F10001092EC041092EB048FEF93E09093EE0478
:103F20008093ED041092F0041092EF049093F20449
:103F30008093F1041092F4041092F3049093F60429
:103F40008093F5041092F8041092F7049093FA0409
:103F50008093F9041092FC041092FB049093FE04E9
:103F60008093FD04109200051092FF0490930205C7
:103F700080930105109204051092030590930605A5
:103F800080930505109208051092070590930A0585
:103F90008093090510920C0510920B0590930E0565
:103FA00080930D051092100510920F059093120545
:103FB0008093110510921405109213059093160525
:103FC0008093150593E0909317059093E604109263
:103FD000E80487E08093E9041092EA0435E039832D
:103FE00081E08A8329E02B833C83E1EAED838E83A1
:103FF00045E84F83988739872A8749E14B878C8723
:1040000049E24D879E87F5E1FF87188A45E2498B93
:104010008A8B65E76B8B8C8B55E95D8B9E8B45E5B9
:104020004F8B188E45E6498F1A8E41E84B8F72E010
:104030007C8F6D8F8E8F5F8F38A349A39AA33BA38C
:104040008CA32DA38EA3FFA318A687E289A78FEFC9
:104050008AA78BA71CA61DA66EA780E18FA758ABC9
:1040600099ABEAAB1BAA2CAB80E38DAB2EAB81E303
:104070008FAB28AF82E389AF4AAF7BAF80EC8CAFC8
:104080008DAF8DE390E00E9458307C018DE3FE01FE
:104090003196D70101900D928A95E1F787E090E083
:1040A0000E9458308C01DC0111961C921E921396CE
:1040B000FC92EE9212978DE390E015969C938E936E
:1040C000149716961C920E945307FC01A385B48591
:1040D000109709F073C01487038785859685D801EA
:1040E00014962D913C91820F931F9687858790910E
:1040F000E604892F869586958695977009F066C0A7
:104100008093E7041091E704812F90E00E945830DB
:104110009093E4048093E30481E09091E80491118A
:1041200001C080E01A5F810F809318051092CA04C5
:104130001092C9041092CC041092CB041092CE04B9
:104140001092CD041092D0041092CF041092D20499
:104150001092D1041092D4041092D3041092D60479
:104160001092D5041092D8041092D7041092DA0459
:104170001092D9041092DC041092DB041092DE0439
:104180001092DD048FEF9FEF9093E0048093DF04A3
:104190009093E2048093E10490E080E02091E704B2
:1041A00028171906A9F0A4F0E091E304F091E404C3
:1041B000E80FF91F10820196F1CFDC018D919C91DF
:1041C00011970097D1F70D931C9387CF8F5F98CFEE
:1041D0001092BB041092BA0482E492E09093B90466
:1041E0008093B80483E08093BC0482E08093BD0494
:1041F00061E083E00E943F0461E08091BD040E9481
:104200003F0461E08091BC040E94110461E0809150
:10421000BD040E9411041092C1048CE291E09093BD
:10422000C3048093C2041092C40484E68093C00443
:104230004FE86091BD048091BC040E946D0640E48B
:104240006091BD048091BC040E946D0682E492E0FE
:104250009093B9048093B804E2E4F2E0E491909181
:104260007B008E2F880F880F80729F7D892B809313
:104270007B00E770E064E0937C0080917A008064CA
:1042800080937A0080917A0086FDFCCF809178003F
:1042900060917900762F682F072E000C880B990B00
:1042A000611571058105910511F00E94182B62E0DE
:1042B00080E00E943F0462E081E00E943F04E3E26C
:1042C000F2E0E491F0E0EE0FFF1FEB5EFD4FA591F1
:1042D000B491B093AD04A093AC04E6EFF1E0649127
:1042E0006093B004E4E2F2E0E491F0E0EE0FFF1F2F
:1042F000EB5EFD4F259134913093AF042093AE04D3
:10430000E7EFF1E0E491E093B1041092B30410926E
:10431000B4041092B5041092B6044BE35FE1CA01F5
:104320000197F1F79C91862F892391E009F490E0A1
:10433000D9018C91E82309F092602CEA34E0909343
:10434000B2043093A7042093A60483E198E09093ED
:10435000930180939201809169008F7C80618093AA
:104360006900EA9A81E08093B7043093A90420930E
:10437000A80489E198E0909395018093940180913D
:1043800069008F73806480936900EB9A82E0809368
:10439000B704CA56DF4F0FB6F894DEBF0FBECDBFCD
:1043A000DF91CF911F910F91FF90EF900895CF93E0
:1043B000DF93CDB7DEB72D970FB6F894DEBF0FBEF3
:1043C000CDBF789484B5826084BD84B5816084BD9E
:1043D00085B5826085BD85B5816085BD80916E00A3
:1043E000816080936E0010928100809181008260D4
:1043F0008093810080918100816080938100809111
:104400008000816080938000809191008260809321
:104410009100809191008160809391008091900043
:104420008160809390008091C10084608093C1007E
:104430008091C10082608093C1008091C100816041
:104440008093C1008091C30081608093C3008091FC
:10445000C00082608093C0008091C2008160809320
:10446000C20080917A00846080937A0080917A0003
:10447000826080937A0080917A00816080937A00D4
:1044800080917A00806880937A0010925104109293
:104490001604109215048091D70081608093D70094
:1044A00080EA8093D80089B5806189BD89B5826032
:1044B00089BD09B400FEFDCF61E070E080E090E0CE
:1044C0000E94B5048091D8008F7C80618093D800D1
:1044D0008091E000807F8093E0008091E1008E7EFB
:1044E0008093E1008DE08093E200559A209A62E08B
:1044F00084E00E943F0462E085E10E943F0462E0A4
:1045000083E10E943F0462E084E10E943F0484E072
:104510008093BE0481E08093BF040E94DC098EE199
:104520008093C0044AE86091BD048091BC040E945D
:104530006D060EE110E084E00E94E803892BA1F4EF
:1045400064E670E080E090E00E94B504015011093B
:1045500091F70E94DB1A83E00E946D098FEF9FEFB5
:1045600090938B0180938A010E946F1020E030E0CD
:104570004AE754E4609146017091470180914801F7
:10458000909149010E94682F6B017C0120E030E08E
:10459000A9010E94103020E030E040E05FE387FD99
:1045A000F0C0C701B6010E94FC2E0E94DA2FB2E0D3
:1045B000660F771F881F991FBA95D1F7F8946093FB
:1045C000B3047093B4048093B5049093B6047894C4
:1045D0000FEF1FEF10935F0400935E0481E0809360
:1045E000E5040E94870A1092EC041092EB041093E9
:1045F000EE040093ED041092F0041092EF04109377
:10460000F2040093F1041092F4041092F304109356
:10461000F6040093F50447E066E089E195E00E9426
:104620007B0449E068E086E295E00E947B0440E17B
:104630006CE183E395E00E947B04809116019091E8
:104640001701A0911801B091190180932205909350
:104650002305A0932405B093250580911A0190911C
:104660001B01A0911C01B0911D0180932F05909317
:104670003005A0933105B093320580911E019091D1
:104680001F01A0912001B091210180933C059093DE
:104690003D05A0933E05B0933F0580912E0190917A
:1046A0002F01A0913001B091310180931E059093AC
:1046B0001F05A0932005B0932105809132019091B0
:1046C0003301A0913401B091350180932B05909373
:1046D0002C05A0932D05B0932E0580913601909165
:1046E0003701A0913801B09139018093380590933A
:1046F0003905A0933A05B0933B050E94980519E14E
:10470000412E512C612C712CCE0105969E838D83F8
:1047100080918C0190918D01823D944061F48AE9F1
:1047200092E00E944B2E80938C018BE992E00E94D4
:104730004B2E80938D0180918C0190918D01883258
:10474000934021F160E773E082E594E00E94390E26
:1047500080918C0190918D010E94A90C6EE572E010
:1047600082E594E00E94540C68E873E180E090E0F8
:104770000E94B50480E090E0892B51F20E94000075
:10478000C3CFC701B6010E94FB2E0FCF90E080E09F
:104790000E94921181E090E00E94921182E090E0EC
:1047A0000E94921185E10E94E803E1E0EF83892BEA
:1047B00009F01F82FF818F2E912C83E10E94E80374
:1047C00022242394892B09F0212CA22CB12C84E1E2
:1047D0000E94E80333243394892B09F0312CC32C35
:1047E000D12C84E00E94E8037C0101E010E0892BD9
:1047F00011F010E000E0809148049091490488167F
:10480000990641F06F8180E00E941F0C909249044C
:104810008092480480914A0490914B04A816B906EE
:1048200041F0622D81E00E941F0CB0924B04A092D7
:104830004A0480914C0490914D04C816D90641F069
:10484000632D82E00E941F0CD0924D04C0924C0454
:1048500080914E0490914F0408171907E1F0EF285A
:10486000B1F410924704109246048EE18093C00484
:104870004AE86091BD048091BC040E946D060E94CC
:10488000DB1A8FEF9FEF90938B0180938A01109337
:104890004F0400934E040E94870A82E594E00E9430
:1048A0008203181619060CF046C0E6E2F4E080E236
:1048B000DF011D928A95E9F77F0110E000E082E5B3
:1048C00094E00E948203181619060CF006C482E5D3
:1048D00094E00E9440038A3009F0F6C3F801EA5DD3
:1048E000FB4F1082809126048A3029F1882319F128
:1048F00010912704209128049DE8980F933008F424
:1049000043C18C3309F440C192EC980F923008F403
:104910003BC19DE9980F943008F436C1813209F407
:1049200033C18F3609F41DC1863709F41AC180E8F6
:1049300093E00E94DD0D809125048823C9F160ED8C
:1049400073E082E594E00E94390E60911904709141
:104950001A0480911B0490911C0442E00E94D70C21
:1049600061E473E082E594E00E94390E60911D04D9
:1049700070911E0480911F049091200442E00E94D7
:10498000D70C61E473E082E594E00E94390E6091F7
:10499000210470912204809123049091240442E028
:1049A0000E94D70C62ED73E082E594E00E94390E1C
:1049B0008091B704823008F099C3F8948CEA94E0AF
:1049C0000E94C5076091B3047091B4048091B5044E
:1049D0009091B604789424E030E040E050E00E94EA
:1049E000612E69017A011C141D041E041F040CF4BD
:1049F0007FC3F89484E090E0A0E0B0E08093B3043B
:104A00009093B404A093B504B093B6047894C12CE9
:104A1000D12C7601C39420E030E04AE754E4609161
:104A200046017091470180914801909149010E948F
:104A3000682F4B015C0120E030E0A9010E9410309A
:104A400020E030E040E05FE387FD6DC3C501B401C5
:104A50000E94FC2E0E94DA2FC616D706E806F90639
:104A6000E9F08EE18093C0044AE86091BD04809132
:104A7000BC040E946D06A8EEB3E0A70196010E9457
:104A8000802E0E942B2D60934601709347018093E6
:104A900048019093490189E70E94B50F809146042F
:104AA00090914704892B09F048C320E030E04AE7A1
:104AB00054E46091460170914701809148019091C2
:104AC00049010E94682F6B017C0120E030E0A901C0
:104AD0000E94103020E030E040E05FE387FD28C313
:104AE000C701B6010E94FC2E0E94DA2F8B011F9392
:104AF0006F93A5EDB3E0BF93AF9381E090E08C0F8F
:104B00009D1F9F938F930E948D310F900F900F9058
:104B10000F900F900F908981803331F48A81803318
:104B200019F480E289838A838981803311F480E2D9
:104B3000898380918A0190918B010817190709F4E4
:104B400019CE0E94DC09BE016F5F7F4F88EB94E0B5
:104B50000E94390E1092C40410938B0100938A01B5
:104B600009CE91E0111101C090E08F3609F49EC288
:104B7000863709F4A6C2843799F038E8310F33300C
:104B8000C8F081E993E0D5CE91E0211101C090E019
:104B90008F3309F488C2813241F70E94DB1ACBCEF1
:104BA0009111D2C388E8810F833008F4DCC385EA11
:104BB00093E0BFCE843609F416C20CF093C08E3356
:104BC00009F49AC1D4F4813241F38C3309F0B3CEA5
:104BD000992379F088E294E00E94212B183709F09C
:104BE00077C110923A0110923B0110923C01109251
:104BF0003D01812F0E94F30F9ECE8F3309F453C2E3
:104C0000833609F098CE992309F449C261E473E030
:104C100086E294E00E946A2B892B09F48CCE61E431
:104C200073E090E080E00E946A2B009709F483CE45
:104C30000E94252B4C0161E473E090E080E00E942B
:104C40006A2B009709F477CE0E94252B5C0161E462
:104C500073E090E080E00E946A2B009709F46BCE2D
:104C60000E94252B6C0161E473E090E080E00E94DB
:104C70006A2B009709F45FCE0E94252B7C0161E42A
:104C800073E090E080E00E946A2B009709F453CE15
:104C90000E94252B1C0161E473E090E080E00E94FB
:104CA0006A2B009709F447CE0E94252B183709F08C
:104CB000C2C19092670180926601B0926901A09290
:104CC0006801D0926B01C0926A01F0926D01E0928E
:104CD0006C0130926F0120926E019093710180936C
:104CE000700129CE8F3609F4E1C1D4F48536E9F19B
:104CF000863609F020CE992379F088E294E00E946C
:104D0000212B183709F070C06093220170932301A2
:104D10008093240190932501812F0E9416110BCEC0
:104D2000853709F440C1863709F4CBC1833709F0D0
:104D300002CE9923B1F088E294E00E94212B18372B
:104D400079F5609316017093170180931801909381
:104D50001901609322057093230580932405909395
:104D60002505812F0E945411E6CD9923B9F081E0E9
:104D7000203309F480E0183731F48093130188E779
:104D80000E94FF0DD8CD193721F48093140189E7D3
:104D9000F7CF809315010E94F40DCDCD812FF0CF78
:104DA000193789F460931A0170931B0180931C01D9
:104DB00090931D0160932F0570933005809331050A
:104DC00090933205CECF60931E0170931F018093A4
:104DD00020019093210160933C0570933D058093E1
:104DE0003E0590933F05BDCF193749F460932601E6
:104DF0007093270180932801909329018DCF6093B0
:104E00002A0170932B0180932C0190932D0184CF64
:104E10009111B5C2812F49C0113609F422C38BCD3F
:104E200088E294E00E94432B183711F0113681F488
:104E300060932E0170932F01809330019093310184
:104E400060931E0570931F058093200590932105A4
:104E5000193719F0113609F073C26093320170935B
:104E60003301809334019093350160932B05709347
:104E70002C0580932D0590932E051A37C9F4609365
:104E80003601709337018093380190933901609314
:104E900038057093390580933A0590933B0588E770
:104EA000183719F0193739F489E70E94311043CDCA
:104EB000113629F3F4CF1A3709F403C3113609F078
:104EC0003ACD88E70E94311089E70E943110F9C27B
:104ED000193749F410924201109243011092440193
:104EE0001092450186CE10924A0110924B01109209
:104EF0004C0110924D017DCE992371F088E294E02F
:104F00000E94212B183761F460933E0170933F019A
:104F10008093400190934101812F0E94B50F0BCDEA
:104F20001937C1F56093460170934701809348019A
:104F30009093490120E030E04AE754E40E94682F52
:104F40006B017C0120E030E0A9010E94103020E0DC
:104F500030E040E05FE387FD18C0C701B6010E9462
:104F6000FC2E0E94DA2F52E0660F771F881F991FD0
:104F70005A95D1F7F8946093B3047093B404809376
:104F8000B5049093B6047894C7CFC701B6010E94C8
:104F9000FB2EE7CF60934E0170934F018093500139
:104FA00090935101B9CF992371F088E294E00E9467
:104FB000212B183761F46093560170935701809349
:104FC000580190935901812F0E947A0FB4CC193760
:104FD00009F4B1CC60936201709363018093640122
:104FE00090936501F0CF992371F088E294E00E94DC
:104FF000212B183761F46093520170935301809311
:10500000540190935501812F0E943C0F94CC193785
:1050100049F460935A0170935B0180935C01909313
:105020005D01F1CF60935E0170935F018093600139
:1050300090936101E8CF1937C9F49092730180927F
:105040007201B0927501A0927401D0927701C09262
:105050007601F0927901E092780130927B01209202
:105060007A0190937D0180937C0165CC90927F01C1
:1050700080927E01B0928101A0928001D092830142
:10508000C0928201F0928501E09284013092870102
:105090002092860190938901809388014CCC812FC6
:1050A0000E943B0E48CC0E946F1045CC992331F0F2
:1050B00081E0103309F480E0809325040E941D0EE6
:1050C0003ACC81EF91E035CCD7018D937D010F5F14
:1050D0001F4F0032110509F0F2CB40E250E060E2D0
:1050E00070E086E294E00E94863125CCF8946ACC88
:1050F00095E6C916D104E104F1040CF48CCCF894C3
:1051000080E991E0A0E0B0E08093B3049093B40410
:10511000A093B504B093B604789434E6C32ED12C92
:10512000E12CF12C78CCC501B4010E94FB2E92CC6D
:10513000C701B6010E94FB2ED7CC209117043091F5
:105140001804C901B0E0A0E088879987AA87BB87C7
:10515000A4E6B0E00E94EC2E2FEF3FEF40E050E0DD
:105160000E94CA2ECA01B9010E94292D6B017C013F
:105170000E94DA2F4B015C01A4E6B0E0AC019B0178
:105180000E94802EA30192010E94612E2C8799819A
:105190009F83A50194012951310941095109A4E6D0
:1051A000B0E00E94802E4B015C01A30192010E949D
:1051B000612E2D872A800B811C81C501B401645C9E
:1051C000794081099109A30192010E94612E322E3A
:1051D000C501B4016858734181099109A301920185
:1051E0000E94612E922E24E0A22EB12C20E030E00D
:1051F000A901C701B6010E94103018167CF420E006
:1052000030E048EC51E4C701B6010E94242D181685
:105210002CF0AC85AF8310E000E0212C20E030E0E2
:1052200048EC51E4C701B6010E94103018167CF416
:1052300020E030E048E452E4C701B6010E94242D8A
:1052400018162CF02D8410E000E0B4E6BF8320E0B7
:1052500030E048E452E4C701B6010E94103018164D
:1052600084F420E030E046E952E4C701B6010E9430
:10527000242D181634F0032D10E094E6292EE4E6D0
:10528000EF8320E030E046E952E4C701B6010E9416
:105290001030181684F420E030E048EC52E4C701E6
:1052A000B6010E94242D181634F0192D04E684E668
:1052B000282EF4E6FF8321E0A21AB10809F096CF68
:1052C0008F8189832A820B831C839E012F5F3F4F2E
:1052D00005EC14E0D9018D919D0190E061E270E050
:1052E0000E942A30643008F063E0F901319760834E
:1052F000E62FF0E0EE50FE4FE491D801ED938D01E2
:10530000ED81FE81E217F30729F720E044E050E049
:1053100065EC74E088EB94E00E94BF084AE0688581
:1053200079858A859B850E94630C61E473E082E540
:1053300094E00E94390EC701B6010E94280E1ACAD5
:105340001A3709F0ACCD9BCD2E3609F069CD183750
:10535000B1F087E8810F823060F0113609F458CD42
:105360008AEB93E0E6CA2E3609F054CD183789F758
:1053700051CD992309F44ECD113609F0A4C0809186
:105380001301C12CD12C76018823D9F0F9E1AF2E7D
:10539000B12CC12CD12CE12CA0E8FA2E89E195E0AA
:1053A0000E944A086C157D058E059F0534F089E141
:1053B00095E00E944A086B017C01B1E0AB1AB1088C
:1053C00069F7C0922E01D0922F01E0923001F09245
:1053D0003101C0921E05D0921F05E0922005F09287
:1053E000210588E70E943110193719F0113609F0AC
:1053F0006DC080911401C12CD12C76018823D9F085
:1054000079E1A72EB12CC12CD12CE12CE0E8FE2EA5
:1054100086E295E00E944A08C616D706E806F90615
:1054200014F46B017C01C701B6010E94AF0DE1E0ED
:10543000AE1AB10869F7C0923201D0923301E092FE
:105440003401F0923501C0922B05D0922C05E092E8
:105450002D05F0922E0589E70E9431101A3709F0C8
:10546000DBCC80911501C12CD12C76018823C9F0A9
:1054700009E110E0C12CD12CE12C60E8F62E83E389
:1054800095E00E944A086C157D058E059F0534F055
:1054900083E395E00E944A086B017C0101501109E9
:1054A00071F7C0923601D0923701E0923801F09244
:1054B0003901C0923805D0923905E0923A05F09250
:1054C0003B058AE7F2CC193709F493CF1A3709F074
:1054D00032CAC7CFCF93DF93C0E4D5E02D97E881E0
:1054E000F9810190F081E02DCE01099585E0C93167
:1054F000D807A1F7DF91CF9108958F929F92AF9235
:10550000BF92CF92DF92EF92FF92CF93DF93EC01A5
:10551000688179818A819B81611571058105910579
:1055200021F464E279ED8BE597E02DE133EF41E082
:1055300050E00E94612E49015A019B01AC01A7EA8B
:10554000B1E40E94802E6B017C01ACEEB4EFA501AA
:1055500094010E948E2EC60ED71EE81EF91EF7FE7D
:1055600006C081E0C81AD108E10880E8F80AC882BC
:10557000D982EA82FB82C701B6019F77DF91CF9182
:10558000FF90EF90DF90CF90BF90AF909F908F9063
:1055900008958F929F92AF92BF92CF92DF92EF9237
:1055A000FF92609198017091990180919A01909178
:1055B0009B01611571058105910521F464E279ED86
:1055C0008BE597E02DE133EF41E050E00E94612E42
:1055D00049015A019B01AC01A7EAB1E40E94802E67
:1055E0006B017C01ACEEB4EFA50194010E948E2EFC
:1055F000C60ED71EE81EF91EF7FE06C081E0C81AC7
:10560000D108E10880E8F80AC0929801D092990187
:10561000E0929A01F0929B01C701B6019F77FF903B
:10562000EF90DF90CF90BF90AF909F908F900895B4
:10563000609398017093990180939A0190939B01D4
:105640000895662777270C94B32BFC0188279927A8
:10565000E89421912032E9F3293010F02E30C8F37C
:105660002B3241F02D3239F4689404C00E94AB2BE8
:10567000820F911D219120532A30C0F31EF4909582
:1056800081959F4F08951F93FC0199278827BC019E
:10569000E89411911032E9F3193010F01E30C8F37C
:1056A0001B3251F01D3249F4689406C00E94962BBB
:1056B000610F711D811D911D119110531A30B0F3AE
:1056C0003EF490958095709561957F4F8F4F9F4FD9
:1056D0001F91089540E455E00E946F2B0895FA0150
:1056E000A191B081009719F41097E1F0CD01DC0190
:1056F000CD010D90002011F4C00113C0FB012191D8
:10570000222319F02015D9F7F3CFFB0121912015A1
:1057100019F41E92119606C02223C1F70D900020A5
:10572000A1F7D001FA01A193B0830895592F482F12
:10573000372F262F660F771F881F991F660F771F39
:10574000881F991F620F731F841F951F660F771F95
:10575000881F991F08957AE0979F902D879F802D2D
:10576000910D11240895B0E0A0E0E9EBFBE20C9468
:10577000992E5C017B016115710519F0DB018D9398
:105780009C9385010F5F1F4FF501D0818D2F90E015
:105790000E94032D6C01892BB9F5DD32B9F50F5F3D
:1057A0001F4FD5011196DC91C1E05801F1E0AF1A0D
:1057B000B10843E050E064EB70E0C5010E940C2D9D
:1057C000892B69F5680182E0C80ED11C45E050E0E4
:1057D0006FEA70E0C6010E940C2D892B21F468014C
:1057E00097E0C90ED11CE114F10419F0D701CD9254
:1057F000DC9260E070E080E89FEFC111FFC060E0E4
:1058000070E080E89FE7FAC05801BBCFDB3229F493
:1058100085010E5F1F4FF501D181C0E0C6CF43E087
:1058200050E06CEA70E0C5010E940C2D892BE9F074
:10583000F80110E000E020E030E0A9015F01B0EDE8
:105840008B2E8D0E89E08815C8F19C2E689491F8F6
:105850008C2F8870C2FF16C0811102C00F5F1F4FCE
:105860003196D501DC91C92DE9CFE114F10429F07D
:105870000E5F1F4FF7011183008360E070E080EC42
:105880009FE7BCC0882311F001501109A5E0B0E0EA
:105890000E94802E9B01AC01220F331F441F551F15
:1058A000280D311D411D511D283999E93907490736
:1058B00099E15907A8F2C6609C2ED2CFAEEF8A12AA
:1058C00006C0C3FD3CC09C2E689493F8C9CFDF7D11
:1058D000D534A9F580818D3239F4C061DF0112968B
:1058E000818162E070E006C0DF018B32C1F3119666
:1058F00061E070E080535D01A61AB70A8A30F8F4BF
:10590000E0E8CE16ECE0DE065CF4B601660F771F29
:10591000660F771FC60ED71ECC0CDD1CC80ED11C1F
:105920005D01FFEFAF1ABF0A8C9180538A30A8F156
:10593000C4FF03C0D194C194D1080C0D1D1DC1FF3B
:1059400009C0E114F10431F081E0A81AB108D701CF
:10595000AD92BC92CA01B9010E94292DC370C33017
:1059600009F490584B015C0120E030E0A9010E944D
:10597000242D882309F440C0C3EED0E017FF05C0F2
:10598000119501951109CBECD0E06E01B8E1CB1A6D
:10599000D10880E2E82EF12C0FC0D501B1CFFE0175
:1059A00025913591459154910E191F09C501B401F6
:1059B0000E948A2D4B015C01D501C4010E151F0503
:1059C00074F72497F594E794CC16DD06A9F78A2F8F
:1059D000880F8B2F881F8F3F49F020E030E0A9010E
:1059E000C501B4010E94242D811106C082E290E01D
:1059F0009093430580934205C501B401CDB7DEB74E
:105A0000ECE00C94B52E91110C94F72D803219F026
:105A100089508550C8F70895FB01DC014150504082
:105A200088F08D9181341CF08B350CF4805E65918B
:105A300061341CF06B350CF4605E861B611171F3F0
:105A4000990B0895881BFCCF0E94662D08F481E015
:105A50000895E89409C097FB3EF490958095709561
:105A600061957F4F8F4F9F4F9923A9F0F92F96E9AA
:105A7000BB279395F695879577956795B795F1111F
:105A8000F8CFFAF4BB0F11F460FF1BC06F5F7F4FBC
:105A90008F4F9F4F16C0882311F096E911C07723CE
:105AA00021F09EE8872F762F05C0662371F096E8D7
:105AB000862F70E060E02AF09A95660F771F881FA6
:105AC000DAF7880F9695879597F90895990F00084A
:105AD000550FAA0BE0E8FEEF16161706E807F907C0
